:1000000037C06CC045C044C043C042C041C040C0BE
:100010003FC03EC03DC03CC03BC03AC039C038C004
:1000200037C000CDD914F13C28E5A16C78B5509DBE
:1000300089441603550053004200740069006E00A5
:10004000790049005300500012010101FF0000082F
:1000500081179F0C07010002000109021200010133
:100060000080FA0904000000FF00000004030904F6
:1000700011241FBECFE5D2E0DEBFCDBF10E0A0E669
:10008000B0E001C01D92AE39B107E1F78CD38EC349
:10009000B7CFDC019FEF8FEF42E2F0E018C02D9167
:1000A0008227E82FEF70E40F3591E82FE295892F32
:1000B000932F3170E327EF709295392F9F70307E28
:1000C0008327E40F359193273170932783276A950F
:1000D00032F7809590958D939D9308950F931F937C
:1000E0002F93DF93CF930FB70F93C999FECFC99981
:1000F0000BC0C99909C0C99907C0C99905C0C99958
:1001000003C000E40ABFACC0C0918600DD27C95718
:10011000DF4F0BE013E022E0C99BE9CF3F934F9301
:100120006F9369B330E803C069B3432B4993442705
:1001300063702627215029B32370A9F137953C3FDE
:10014000A0F56227615069B3637037953C3F98F51D
:1001500026272150379529B323703C3F90F562271D
:10016000615037953C3F69B36370A0F52627215055
:1001700037953C3FC8F529B3237062276150379506
:100180003C3FB0F50A9569B37AF063702627215099
:1001900037953C3F88F529B3237062276150379526
:1001A0003C3F10F22DC031C052C0612729B32370EB
:1001B0003F774160C6CF3F77426069B363702127C4
:1001C000C7CF3F774460612729B32370622761500E
:1001D0003795C8CF3F7748602127316069B3637096
:1001E000262721503795C6CF3F7740616127C1CF81
:1001F0003F7740622127C4CF3F7740646127C9CF52
:100200003F774068212700C08FCF30E43ABF0B50C2
:100210000195C01BD040288121FD2DC019811F7779
:1002200040919D00141799F4293691F400917600BD
:100230000023F1F0409185004423D1F440937600EF
:100240004091820040939D00C7E7D0E02BC0222759
:10025000209360006F914F913F910AB706FD45CF03
:100260000F910FBFCF91DF912F911F910F91189593
:10027000C3E8D0E016C0217059F32091600022231A
:1002800039F340918500442399F70093850020932A
:100290008400009186004BE0401B40938600C5E738
:1002A000D0E001E02BB32C7F21601AB313602BBB8D
:1002B0001ABB13E030E830FF21272BBB3795479559
:1002C0004C3FC0F530FF212737952BBB47954C3F5E
:1002D000A8F530FF2127379500002BBB47954C3FF1
:1002E00078F530FF2127379500002BBB47954C3F11
:1002F00048F530FF212769912BBB379547954C3F37
:1003000018F530FF212737952BBB47954C3F00F55B
:1003100030FF2127379547952BBB4C3FD8F430FF52
:1003200021273795362F47952BBB4C3FA8F40A95CC
:1003300012F614C0212744272BBBC2CF2127C5CFDB
:100340002127CBCF2127D1CF212744272BBBD7CFA4
:100350002127DACF2127DFCF2127E5CF2C7F2BBB29
:100360006F914F913F9100E40ABFDF91CF911AB393
:10037000022F21602BBB1C7FDFBFDF912F9100007C
:100380001ABB0BBB1F910F91189585B7836085BF72
:100390008BB780648BBFD79A82ED809375008AE516
:1003A00080938300789408951F93CF93DF93609197
:1003B0008500662309F46EC080918600CCE0D0E011
:1003C000C81BD109C957DF4F81E08093610080913C
:1003D00084008D3209F050C01E818F8181111FEF82
:1003E00088818076C1F58981882321F41882198259
:1003F00082E03AC0853029F48A8180938200DF9AB6
:1004000032C08630F1F482E0809361008B818130CC
:1004100019F4C8E4D0E004C0823021F4CAE5D0E089
:1004200082E122C08330F9F48A81882321F4CCE66A
:10043000D0E084E019C08230B1F486E1C2E3D0E0BC
:1004400013C0883019F481E088830EC08A3059F4D3
:10045000188281E009C0CE01CED08F3F29F483E01D
:100460008093610004C080E0811708F4182FD093B6
:100470006400C093630005C0635011F0CE013AD10F
:1004800010E01093620083EC809377001092760066
:100490001092850080917600882309F04AC040912F
:1004A0006100442309F445C08091770098E88927CA
:1004B0008093770010916200193010F018E002C0AC
:1004C000112359F1433031F488E790E0612FFDD0DA
:1004D000182F1EC02091630030916400413051F408
:1004E000F901A8E7B0E081918D938E2F821B8117CF
:1004F000D0F30AC0F901A8E7B0E0849131968D935A
:100500008E2F821B8117C8F3F0936400E093630081
:1005100080916200811B8093620088E790E0612FE8
:10052000B8DD1D5F109376001350183010F4109250
:1005300061008AE002C0815019F0C89BFCCF04C062
:100540001092820010929D00DF91CF911F9108952B
:10055000FC01DB016091650022C0708190E050E8F1
:1005600020E030E0852F872309F0DD98062E00C0BB
:1005700000000A94E1F7DC98062E00C000000A94FF
:10058000E1F7990FCE999F5FDD9ADC9A56952F5F20
:100590003F4F2830310531F7415031969D93442328
:1005A000E1F6089520916800309169002F5F3F4F78
:1005B00030936900209368002150304080916C0096
:1005C00087FF02C0220F331F80936D0020FF03C0FE
:1005D000886080936D00C901892F99278695809343
:1005E0006E003695279520936F008DE690E061E7C9
:1005F00070E044E0ADCFFC012181222311F488E0BA
:100600000895213099F1822F8250833008F45BC025
:10061000253081F48281809365008481882311F0E4
:100620009CE301C094E38AB38C638ABB8BB3982BA1
:100630009BBB47C0263039F48AB3837C8ABB8BB31B
:10064000837C8BBB3EC08BB38823E9F1273039F420
:10065000CF010296BF0144E07BDF84E008952E3095
:1006600039F4CF010296BF0141E072DF81E00895C5
:10067000283039F4828180936600838180936700FB
:1006800020C084819581909369008093680029300F
:1006900011F480E203C02B3029F480EA80936C00CF
:1006A0008FEF08958281938190936B0080936A000D
:1006B0002A3011F480E403C02C3029F480EC8093BC
:1006C0006C0080E0089580E008950F931F93CF930E
:1006D000DF93062FEC0110E005C064DF8091740009
:1006E00089931F5F1017C8F3802FDF91CF911F915F
:1006F0000F9108957F928F929F92AF92BF92CF9267
:10070000DF92EF92FF920F931F93CF93DF93862E8A
:10071000A0906A00B0906B0090906600C090670057
:1007200020916500E22EFF2475E0EE0CFF1C7A9507
:10073000E1F78C01DD2460E6762E25C0F80180818A
:10074000809370002FDF80916D00872580936D006E
:10075000C0E0D0E012C08DE690E061E770E044E0D8
:10076000F7DE9091740080917000981721F499152C
:1007700011F09C1529F4CE0DDF1DCA15DB0558F3C9
:10078000D3940F5F1F4FD814C8F2DF91CF911F9100
:100790000F91FF90EF90DF90CF90BF90AF909F9020
:1007A0008F907F900895F1DDFFDDFECFF894FFCFAD
:00000001FF
