:1000000037C06AC043C042C041C040C03FC03EC0CC
:100010003DC03CC03BC03AC039C038C037C036C014
:1000200035C000CDD914F13C28E5A16C78B5509DC0
:100030008944090212000101008032090400000015
:10004000FF00000012010101FF00000881179F0C52
:1000500007010002000104030904160355005300C0
:100060004200740069006E0079004900530050009E
:1000700011241FBECFEDCDBF20E0A0E6B0E001C04F
:100080001D92AE39B207E1F784D386C3B9CFDC0144
:100090009FEF8FEF42E2F0E018C02D918227E82F0A
:1000A000EF70E40F3591E82FE295892F932F31708F
:1000B000E327EF709295392F9F70307E8327E40FEE
:1000C000359193273170932783276A9532F780956E
:1000D00090958D939D9308950F931F932F93DF9386
:1000E000CF930FB70F93C999FECFC9990BC0C99988
:1000F00009C0C99907C0C99905C0C99903C000E4DE
:100100000ABFACC0C0918600DD27C957DF4F0BE0A6
:1001100013E022E0C99BE9CF3F934F936F9369B3FC
:1001200030E803C069B3432B499344276370262703
:10013000215029B32370A9F137953C3FA0F56227E0
:10014000615069B3637037953C3F98F5262721507D
:10015000379529B323703C3F90F56227615037955E
:100160003C3F69B36370A0F52627215037953C3F8B
:10017000C8F529B323706227615037953C3FB0F52D
:100180000A9569B37AF063702627215037953C3F72
:1001900088F529B323706227615037953C3F10F2F0
:1001A0002DC031C052C0612729B323703F77416011
:1001B000C6CF3F77426069B363702127C7CF3F77CF
:1001C0004460612729B32370622761503795C8CFF7
:1001D0003F7748602127316069B36370262721503B
:1001E0003795C6CF3F7740616127C1CF3F774062E7
:1001F0002127C4CF3F7740646127C9CF3F7740684C
:10020000212700C08FCF30E43ABF0B500195C01BAF
:10021000D040288121FD2DC019811F7740919D007C
:10022000141799F4293691F4009176000023F1F027
:10023000409185004423D1F44093760040918200A0
:1002400040939D00C7E7D0E02BC022272093600099
:100250006F914F913F910AB706FD45CF0F910FBFA8
:10026000CF91DF912F911F910F911895C3E8D0E0A6
:1002700016C0217059F320916000222339F3409178
:100280008500442399F70093850020938400009112
:1002900086004BE0401B40938600C5E7D0E001E0BC
:1002A0002BB32C7F21601AB313602BBB1ABB13E056
:1002B00030E830FF21272BBB379547954C3FC0F5E1
:1002C00030FF212737952BBB47954C3FA8F530FFD2
:1002D0002127379500002BBB47954C3F78F530FF21
:1002E0002127379500002BBB47954C3F48F530FF41
:1002F000212769912BBB379547954C3F18F530FF67
:10030000212737952BBB47954C3F00F530FF212720
:10031000379547952BBB4C3FD8F430FF21273795B5
:10032000362F47952BBB4C3FA8F40A9512F614C004
:10033000212744272BBBC2CF2127C5CF2127CBCFD5
:100340002127D1CF212744272BBBD7CF2127DACF95
:100350002127DFCF2127E5CF2C7F2BBB6F914F913A
:100360003F9100E40ABFDF91CF911AB3022F2160C1
:100370002BBB1C7FDFBFDF912F9100001ABB0BBB93
:100380001F910F91189585B7836085BF8BB78064E7
:100390008BBFD79A82ED809375008AE580938300A6
:1003A000789408951F93CF93DF936091850066231F
:1003B00009F46FC080918600CCE0D0E0C81BD10961
:1003C000C957DF4F81E080936400809184008D32B3
:1003D00009F051C01E818F8181111FEF88818076C5
:1003E00069F58981811104C01882198282E03BC0BD
:1003F000853029F48A8180938200DF9A33C0863069
:1004000099F482E0809364008B818130F9F082302E
:1004100009F1833039F58A81882301F1823011F5A1
:1004200086E1CAE5D0E01FC0883019F481E08883F6
:100430001AC08A30B9F4188281E015C0CE01D9D033
:100440008F3F89F483E0809364000FC082E1C4E4AD
:10045000D0E009C082E1C2E3D0E005C084E0C6E597
:10046000D0E001C080E0811708F0812FD0936200B6
:10047000C093610005C0635011F0CE0141D180E00E
:100480008093630083EC8093770010927600109243
:10049000850080917600811151C020916400222353
:1004A00009F44CC09091770088E889278093770001
:1004B000C0916300C93018F4CC23A1F101C0C8E099
:1004C000233031F46C2F88E790E001D1C82F25C08C
:1004D0008091610090916200213089F448E750E0FA
:1004E000FC0131969F0121503109D9012C91DA018B
:1004F0002D93AD012E2F281B2C1798F30AC0A8E7C7
:10050000B0E0FC01249131962D932E2F281B2C173F
:10051000C8F3F0936200E0936100809163008C1B4C
:10052000809363006C2F88E790E0B1DD83E08C0F4F
:1005300080937600C83010F4109264008AE0C89965
:1005400007C08150E1F71092820010929D00DF9861
:10055000DF91CF911F910895FB01DC01442319F134
:1005600041508D9128E030E050E890E0682F6523FD
:1005700011F0DD9A01C0DD9860917400062E00C074
:100580000A94E9F7DC9A60917400062E00C00A9480
:10059000E9F7990FCE999F5FDC9856952150310964
:1005A00029F79193DBCF08958091700090917100AD
:1005B0009C012F5F3F4F309371002093700020917A
:1005C0006D0027FF02C0880F991F80FD28602093CF
:1005D00069009C01232F3327269520936A00969566
:1005E000879580936B0044E065E670E089E690E0D3
:1005F000B3CFFC018181882309F467C0813019F4ED
:1006000089B3808335C09EEF980F933008F45BC0A8
:100610008D3009F458C0853079F48281809374005C
:100620008481882311F02CE001C024E09AB39C63FC
:100630009ABB8BB3822B07C0863039F48AB3837C94
:100640008ABB8BB3837C8BBB3EC09BB39923D9F110
:10065000873039F444E0BF01CF0102967DDF84E0AA
:1006600008958E3039F441E0BF01CF01029674DF66
:1006700081E00895883039F482818093730083810A
:100680008093720020C024813581309371002093C3
:100690007000893011F480E203C08B3029F480EAC5
:1006A00080936D008FEF08952281338130936F0026
:1006B00020936E008A3011F480E403C08C3019F46A
:1006C00080EC80936D0080E0089588E00895EF92BB
:1006D000FF921F93CF93DF93162FEC017C01E60E60
:1006E000F11CCE15DF0529F05FDF8091680089934A
:1006F000F8CF812FDF91CF911F91FF90EF90089558
:10070000DF92EF92FF920F931F93CF93DF93EC0151
:100710007C01E60EF11C30E6D32ECE15DF0589F103
:10072000899180936C0040DF809169008D258093D2
:10073000690000E010E080916E0090916F00081752
:10074000190758F744E065E670E089E690E004DFB9
:100750008091680090916C00891308C0909173009B
:10076000891721F0909172008913D7CF809174007E
:1007700090E025E0880F991F2A95E1F7080F191FCF
:10078000DACFDF91CF911F910F91FF90EF90DF9023
:0C0790000895F9DD07DEFECFF894FFCFDE
:00000001FF
